:020000040800F2
:1000000078D3002031030008BD730008DF610008C9
:100010007D7100084D1A000841AD00080000000085
:100020000000000000000000000000007102000855
:10003000D52A000800000000CD020008B1850008A4
:100040004B0300084B0300084B0300084B03000858
:100050004B0300084B0300084B0300084B03000848
:100060004B0300084B0300084B0300084B03000838
:10007000712900084B0300084B0300084B030008DC
:100080004B0300084B0300084B0300084B03000818
:10009000511A00084B0300084B030008D531000833
:1000A0004B0300084B0300084B0300084B030008F8
:1000B000858600084B0300084B0300084B0300082B
:1000C0004B0300084B0300084B0300084B030008D8
:1000D0004B030008E98C00084B030008F58C00086E
:1000E0004B0300084B0300084B0300084B030008B8
:1000F0004B0300084B0300084B0300084B030008A8
:100100004B0300084B0300084B0300084B03000897
:100110004B0300084B0300084B0300084B03000887
:100120004B0300084B0300087D2900084B0300081F
:100130004B0300084B0300084B0300084B03000867
:100140009D1A00084B0300084B030008C573000804
:100150004B0300084B030008892900084B030008E3
:100160004B0300084B0300084B0300084B03000837
:100170004B0300084B0300084B030008000000007D
:100180004B0300084B03000800F002F800F060F891
:100190000AA090E8000C82448344AAF10107DA45E2
:1001A00001D100F055F8AFF2090EBAE80F0013F0D4
:1001B000010F18BFFB1A43F0010318478CF8000029
:1001C000ACF800000A444FF0000C10F8013B13F0AB
:1001D000070408BF10F8014B1D1108BF10F8015BA0
:1001E000641E05D010F8016B641E01F8016BF9D193
:1001F00013F0080F1EBF10F8014BAD1C0C1B09D1EA
:100200006D1E58BF01F801CBFAD505E014F8016B5B
:1002100001F8016B6D1EF9D59142D6D370470000ED
:100220000023002400250026103A28BF78C1FBD8FF
:10023000520728BF30C148BF0B6070471FB50EF092
:1002400003FC9DE8030000F091FF1FBD10B510BD39
:1002500001F036F81146FFF7F1FF0CF08FF901F0CD
:1002600054F803B4FFF7F2FF03BC01F08BF8000071
:100270002C4B19680868B0E8F04F80F30988BFF389
:100280006F8F4FF0000080F311887047000000006E
:1002900008480068006880F308884FF0000080F389
:1002A000148862B661B6BFF34F8FBFF36F8F00DF64
:1002B00000BF00BF08ED00E0DFF80C00016841F46A
:1002C00070010160704700BF88ED00E0EFF3098026
:1002D000BFF36F8F134B1A681EF0100F08BF20ED8D
:1002E000108A20E9F04F106009B44FF0500080F3FD
:1002F0001188BFF34F8FBFF36F8F0CF007FE4FF0E5
:10030000000080F3118809BC19680868B0E8F04F54
:100310001EF0100F08BFB0EC108A80F30988BFF3FD
:100320006F8F704758060020EFF30580704700007C
:100330000948804709480047FEE7FEE7FEE7FEE779
:10034000FEE7FEE7FEE7FEE7FEE7FEE704480549B5
:10035000054A064B704700007586000889010008B1
:100360007893002078D3002078B3002078B3002061
:100370009FED1A1AF5EE000A40EE010ABDEEE00A02
:10038000F5EEC00A10EE100AF1EE10FA38BF401E6A
:1003900000EE100A1349F7EE001AB8EEC00A30EE6C
:1003A000C00ADFED0F0A20EE200AFCEEC00A10EEB4
:1003B000900AC0F3080000EE900A01EB8000F8EE0E
:1003C000600A90ED011A70EE600A90ED000A71EE7D
:1003D000E01A21EE800A00EE810A704783F9223E7E
:1003E0000000004470F10008B5EEC00AF1EE10FA0A
:1003F00007D2DFED1E0AB4EEE00AF1EE10FAA8BF54
:100400007047DFED1B0AB5EEC00A60EE200ABDEEB4
:10041000E01A11EE100AF1EE10FA38BF401E00EE9D
:10042000100A1549F7EE001AB8EEC00A30EEC00AFD
:10043000DFED100A60EE200ABCEEE00A10EE100AB2
:10044000C0F3080000EE100A01EB8000B8EE400A8D
:1004500090ED011A70EEC00A90ED000A71EEE01AFC
:1004600021EE800A00EE810A70470000CD024CB4F4
:1004700083F9223E0000004470F1000870B4058842
:100480000E884468D1F804C05368B54208D140884A
:100490004988884201BF11888D425188884203D023
:1004A00070BC6FF00200704705FB00F1880827D090
:1004B00094ED001ADCED000A94ED010ADCED011A5E
:1004C00031EE201AD4ED020A70EE211A9CED020AD8
:1004D00083ED001AC3ED011A94ED031ADCED031A43
:1004E00030EE800A401E71EE210A83ED020A04F10B
:1004F0001004C3ED030A03F110030CF1100CD7D163
:1005000011F0030030D0B0F1004F30D200282BDDC5
:10051000211F1B1FACF1040210F0010F0AD091ED56
:10052000010AD2ED010A091D121D30EE200A83EDE9
:10053000010A1B1D400817D091ED010AD2ED010AF6
:10054000401E30EE200A83ED010A91ED020AD2ED41
:10055000020A01F1080102F1080230EE200A83EDDF
:10056000020A03F10803E7D170BC00207047B4EC25
:10057000010A401EFCEC010A30EE200AA3EC010A3D
:10058000F5D1F1E701804280436070472DE9F34FD8
:1005900084B0049840680090486801900498B0F8CE
:1005A00000E04588DFEDFE0A00200290B0EE600A10
:1005B000AE4506D108884988884204BF7146864501
:1005C00004D06FF0020006B0BDE8F08F01985FEA3A
:1005D000010C18BFB7EE001A3DD000BFBEEB0C01F6
:1005E00017D0B1F1004F80F01F82002911DD021FEA
:1005F00011F0010F1CBFC2ED010A121D4B1006D0F5
:10060000C2ED010AC2ED020A08325B1EF8D100EB0E
:100610008100BCF10102A0EC011A19D0B2F1004F27
:1006200080F00882002A13DD031F12F0010F1CBFA7
:10063000C3ED010A1B1D511008D000BFC3ED010A14
:10064000C3ED020A491E03F10803F7D100EB820053
:10065000BCF1010CC2D14FF000080395002D14BF6E
:10066000B0EE602A002000F0BF8100BF009908FBB7
:1006700005F001EB800B0199DBED002A01EB800016
:100680000346F0EE421AC64552D9AEEB0802ABEB78
:10069000850112F0010F17D001EB850191ED000AE1
:1006A000B5EEC00AF1EE10FA07DDB4EEE10AF1EEA4
:1006B00010FA09DDF0EE401A06E0B1EE400AF4EE61
:1006C000C01AF1EE10FAF5D3521031D001EB850CBF
:1006D0009CED000AB5EEC00AF1EE10FA05DDB4EEAD
:1006E000E10AF1EE10FA09DD06E0B1EE400AF4EE9F
:1006F000C01AF1EE10FA01D2F0EE401A01EBC5017A
:1007000091ED000AB5EEC00AF1EE10FA05DDB4EE87
:10071000E10AF1EE10FA09DD06E0B1EE400AF4EE6E
:10072000C01AF1EE10FA01D2F0EE401A521ECDD1ED
:10073000F5EEC01AF1EE10FA00F07381F5EEC02A62
:100740000126F1EE10FA0099D4BFB1EE620AB0EEC4
:10075000620AB4EE610AF1EE10FA1CBFAEEB0802B9
:10076000B2F1010C47D005FB08F201EB820292EDD9
:10077000001A00BFB0EE410A05FB06F4B5EEC00A50
:1007800000EB8404F1EE10FACCBFF0EE400AF1EE7B
:10079000400AF4EE610AF1EE10FA28D1B5EB080C2C
:1007A00011D0BCF1004F7DD2BCF1000F0BDD00BFBA
:1007B00092ED000AD1ED000ABCF1010CE2EC010A55
:1007C000A1EC010AF4D129000ED0B1F1004F6AD298
:1007D000002909DD94ED000AD0ED000A491EE4EC81
:1007E000010AA0EC010AF5D1012002900BE0761C71
:1007F000BCF1010CBED10298012804D0F5EEC02A4C
:10080000F1EE10FA7ED09BED000AB5EB08009A4697
:100810005946064622D0B0F1004F74D200281DDDA3
:10082000091F10F0010F06D0F0EE400A80EEA01A6A
:1008300081ED011A091D401010D000BFD1ED010A51
:10084000401E80EE801A81ED011A91ED021AC1EE70
:10085000000AC1ED020A01F10801EFD1280026D0FB
:10086000B0F1004F7ED2002821DDAAF1040110F082
:10087000010F06D0D1ED010A80EE801A81ED011A38
:10088000091D401013D000BFD1ED010A401E80EEBB
:10089000801A81ED011AD1ED020A80EE801A81EDF5
:1008A000021A01E0CBE0D6E001F10801ECD1DDE96C
:1008B00000124FF000095FEA0E0773D0C14504BF74
:1008C00001EB860102EB850274D091ED000ADC4653
:1008D0005046331E35D01C46B6F1004F7ED2002C58
:1008E0002FDD0B1FABF1040C16F0010F0FD0F0EE53
:1008F000400ADCED011AB0EE601A00EEE11A83ED59
:10090000011A01E08DE0B1E01B1D0CF1040C741024
:1009100015D000BFD3ED010A9CED011A40EE410A4B
:10092000C3ED010AD3ED020A9CED021A0CF1080C8A
:1009300040EE410AC3ED020A0833641EEAD101EB1E
:1009400086012B0036D0B3F1004F72D2002B31DD7F
:10095000A2F1040CAAF1040013F0010F0CD0DCED9D
:10096000010A00E08BE090ED011A001D40EE410A03
:10097000CCED010A0CF1040C5C1019D0DCED010A7D
:1009800090ED011A40EE410ACCED010ADCED020ABD
:1009900090ED021A083040EE410ACCED020A03E065
:1009A000000000000DE005E0641E0CF1080CE5D12C
:1009B00002EB830201EB88017F1E09F101097FF43C
:1009C0007DAF009808F10108001D00900398401EBB
:1009D00003907FF44BAE0299012900E058E004BF78
:1009E00006B0BDE8F08F00BFB5EEC00AF1EE10FA18
:1009F0007FF4E9AD04990EFB05F3002B4A684FF034
:100A000000010BD902EB810C9CED000AB5EEC00A87
:100A1000F1EE10FA02D1491C8B42F3D88B427FF4DD
:100A2000D2AD6FF00400CEE5E0EC010A491EFBD127
:100A3000EFE538E0E0EC010A521EFBD108E692ED4A
:100A4000000AD1ED000ABCF1010CE2EC010AA1ECB4
:100A5000010AF4D1B7E694ED000AD0ED000A491E70
:100A6000E4EC010AA0EC010AF5D1BDE6D1ED000AE3
:100A7000401E80EE801AA1EC011AF7D1EEE6D3ED0C
:100A8000000A401E80EE801AA3EC011AF7D10EE78F
:100A9000BCEC011AD1ED000A5B1E40EE410AE1EC0C
:100AA000010AF5D14DE7B0EC011AD2ED000A5B1E48
:100AB00040EE410AE2EC010AF5D17BE72DE9F04F67
:100AC00082B0466853680193058847884B880020A8
:100AD00000900888874201BFB2F800C0654552887F
:100AE00093421EBF6FF0020002B0BDE8F08F9FED91
:100AF000412A4FEA970EC7F3400B00BFDDE9000221
:100B000002EB800A4A6898464FF00009B0EE420AAC
:100B1000B4465FEA0E0025D092ED001ADCED001A13
:100B200002EB8302DCED010A01EE810A92ED001A6C
:100B300002EB8302401ED2ED001A02EB830200EEAC
:100B4000810A9CED021ADCED030A00040CF1100C82
:100B5000000C01EE210A92ED001A02EB830200EE76
:100B6000810AD9D117F0030026D0ACF10404A2EB1E
:100B7000830210F0010F08D002EB8302D4ED010ACA
:100B800092ED001A241D00EE810A5FEA0B0013D0DB
:100B900002EB830CD4ED010A9CED001A02EBC302B8
:100BA000401E00EE810AD4ED020A92ED001A04F113
:100BB000080400EE810AEBD109F10100AAEC010A58
:100BC0001FFA80F9486800EB8902A8F101001FFABA
:100BD00080F8B8F1000F99D1009806EB8706184409
:100BE00080B20090681E05042D0C87D102B0002051
:100BF000BDE8F08F0000000070B405880E884468DE
:100C0000D1F804C05368B54208D140884988884269
:100C100001BF11888D425188884203D070BC6FF0AB
:100C20000200704705FB00F1880827D094ED001AF8
:100C3000DCED000A94ED010ADCED011A31EE601AD8
:100C4000D4ED020A70EE611A9CED020A83ED001ADF
:100C5000C3ED011A94ED031ADCED031A30EEC00A5D
:100C6000401E71EE610A83ED020A04F11004C3ED27
:100C7000030A03F110030CF1100CD7D111F003009B
:100C800030D0B0F1004F30D200282BDD211F1B1FC8
:100C9000ACF1040210F0010F0AD091ED010AD2ED7F
:100CA000010A091D121D30EE600A83ED010A1B1DA9
:100CB000400817D091ED010AD2ED010A401E30EE36
:100CC000600A83ED010A91ED020AD2ED020A01F1F8
:100CD000080102F1080230EE600A83ED020A03F116
:100CE0000803E7D170BC00207047B4EC010A401E35
:100CF000FCEC010A30EE600AA3EC010AF5D1F1E741
:100D00002DE9F04F02884768B0F802804888D1F892
:100D1000049082B04FF0000A1646824207BF09884D
:100D200088456FF0020002B018BFBDE8F08F4FEAAF
:100D3000980B02EB42000190C8F34000CDF8000090
:100D400009EB8A01BBF1000F33D0019801EB820C53
:100D500001EB80043B46E64601EBC2054FEA0B007F
:100D600093ED000A401E81ED000A93ED010A01EBAC
:100D700002118CED000A93ED020A0CEB021C85EDCA
:100D8000000A93ED030A05EB021584ED000A04EB5B
:100D9000021403F11003E3D10EEB820000EB82009A
:100DA00000EB8201ABF10100504307EB0B1701EBA5
:100DB000001118F0030C21D03B1FA1EB82011CF0A5
:100DC000010F06D093ED010A01EB82011B1D81ED9D
:100DD000000A009880B100BF93ED010A01EB820484
:100DE00001EBC20184ED000A93ED020A401E81ED81
:100DF000000A03F10803EFD107EB8C070AF10100A9
:100E00001FFA80FA701E0604360C99D102B0002039
:100E1000BDE8F08F70B5064600F08CF9056806F164
:100E20000B0020F00704B4429CBF002070BD2B468D
:100E30006A68BAB11068A04210D304F10801884270
:100E40003CBF5068586007D3516810194160116861
:100E5000091B016058601460101D70BD1346526874
:100E6000002AE7D12146284600F06CF90028DED19F
:100E700070BD53EA020C00F069802DE9F04B4FF091
:100E80000006002B1FBFB3FA83F503FA05F424FA1A
:100E900005F65E4012BF1643B2FA82F502FA05F477
:100EA000C5F120051EBF22FA05FC44EA0C042035DA
:100EB00056EA044C4FEA144418BF641C4FF0000873
:100EC0004FF00009904271EB030C39D3002919BF90
:100ED000B1FA81F701FA07F6B0FA80F700FA07F6DF
:100EE000C7F120071EBF20FA07FC46EA0C06203790
:100EF000B6FBF4FCA7EB0507103F07F01F0BCBF187
:100F000020060CFA0BFB2CFA06F644BFB34600266B
:100F1000202FA4BF5E464FF0000B5BEA060C08BF13
:100F20004FF0010B19EB0B09ABFB027C48EB0608F9
:100F3000C01B06FB02CC0BFB03CC71EB0C01C1E721
:100F40000B46024641464846BDE8F08B13B54FF0CC
:100F500000004FF00001AFF30080BDE81C40704777
:100F600010B5431C02E010F8011B71B18107FAD1E2
:100F70004FF0013202C88C1A8C4314EAC211F9D026
:100F8000C01A0A0603D0C01E10BDC01A10BD0A0444
:100F900001D0801E10BD0902FCD0401E10BD032AE6
:100FA00040F2308010F0030C00F0158011F8013B86
:100FB000BCF1020F624498BF11F801CB00F8013B6D
:100FC00038BF11F8013BA2F1040298BF00F801CB31
:100FD00038BF00F8013B11F0030300F02580083A08
:100FE000C0F0088051F8043B083A51F804CBA0E85F
:100FF0000810F5E7121D5CBF51F8043B40F8043BB4
:10100000AFF30080D20724BF11F8013B11F801CBE8
:1010100048BF11F8012B24BF00F8013B00F801CBB9
:1010200048BF00F8012B704710B5203AC0F00B8084
:10103000B1E81850203AA0E81850B1E81850A0E8DC
:101040001850BFF4F5AF5FEA027C24BFB1E8185036
:10105000A0E8185044BF18C918C0BDE810405FEAA6
:10106000827C24BF51F8043B40F8043B08BF704722
:10107000D20728BF31F8023B48BF11F8012B28BF27
:1010800020F8023B48BF00F8012B704702F0FF0335
:1010900043EA032242EA024200F002B84FF00002A3
:1010A0000429C0F0128010F0030C00F01B80CCF17A
:1010B000040CBCF1020F18BF00F8012BA8BF20F8E8
:1010C000022BA1EB0C0100F00DB85FEAC17C24BF3C
:1010D00000F8012B00F8012B48BF00F8012B7047E6
:1010E0004FF0000200B5134694469646203922BFC1
:1010F000A0E80C50A0E80C50B1F12001BFF4F7AF0C
:10110000090728BFA0E80C5048BF0CC05DF804EBED
:10111000890028BF40F8042B08BF704748BF20F85B
:10112000022B11F0804F18BF00F8012B7047704759
:101130007047704700487047209300207047704701
:101140007047704738B504460A4600206946AFF339
:101150000080002808BF38BD02460099204600F0F4
:1011600075F8012038BD012000F0A2B8F8B5AFF342
:101170000080054600200C46102000BF0646A81936
:10118000A0420DD9324669460020AFF30080070027
:1011900008BF00F08DF80098A04218BF0546C4199A
:1011A000FFF7C8FF05600746F01D20F0070046194D
:1011B000284600F00AF8B44208BFF8BDA21B314629
:1011C0003868BDE8F84000F041B800210160C0E98E
:1011D000011070471020704770B50446051FFFF7D7
:1011E000A9FF0068002C14BF446870BD002C18BF14
:1011F000AC423CBF20466468F8D301680A18AA4292
:1012000018BF456003D12A6805461144016028686B
:101210004119A1421CBF6C6070BD616869602168A2
:101220000844286070BD10B500F00CF8006810BDCF
:1012300010B5044600F006F8046010BD0048704781
:101240001893002000487047189300200346406818
:101250008C46002818BF88423CBF03464068F8D33C
:1012600018681844884207D00CF1030020F00700EA
:10127000001D411A521A0146081D0A60FFF7ACBF53
:101280001FB584B000200A9C06AB04AA02A90094F2
:10129000AFF3008018B1DDE9020108B010BD0348CA
:1012A000204000F040F800200146F6E70000207CD6
:1012B00010B500F03FF8BDE8104000F02FB87047BF
:1012C0007546FFF7BBFFAE4605006946534620F062
:1012D0000700854618B020B5FFF738F8BDE8204074
:1012E0004FF000064FF000074FF000084FF0000BE2
:1012F00021F00701AC46ACE8C009ACE8C009ACE895
:10130000C009ACE8C0098D46704710B50446AFF37C
:1013100000802046BDE81040FEF7A3BF002801D0A2
:1013200000F030B8704710B500F04CF8BDE8104040
:10133000FFF7F4BF10B5012805D0002103A000F08D
:1013400027F8012010BD09A1F8E7000053494752D2
:10135000544D454D3A204F7574206F662068656185
:1013600070206D656D6F7279000000003A2048654D
:101370006170206D656D6F727920636F7272757028
:101380007465640001491820ABBEFEE72600020028
:1013900070B505460C460A2000E06D1C00F068F8A8
:1013A00035B128780028F8D102E0641C00F060F81C
:1013B00014B120780028F8D1BDE870400A2000F070
:1013C00057B8000010B5022803D0410103D50DA184
:1013D00012E0002010BD010101D50FA10CE0C100F9
:1013E00001D511A108E0810001D512A104E040005F
:1013F00001D513A100E0002115A0FFF7C9FF0120CE
:1014000010BD0000496E76616C6964204F70657292
:101410006174696F6E0000004469766964652042FA
:1014200079205A65726F00004F766572666C6F772F
:1014300000000000556E646572666C6F77000000F6
:10144000496E657861637420526573756C74000031
:101450005349474650453A2041726974686D657436
:10146000696320657863657074696F6E3A20000067
:1014700008B569468DF800000320ABBE08BD00002A
:1014800001221021014802F02FBE0000000002409E
:1014900000221021014802F027BE00000000024097
:1014A0002DE9F041FFF7F4FF802000F0FFF955200F
:1014B00000F0FCF9552000F0F9F9FFF7E1FF962064
:1014C00001F014FBFFF7E4FF802000F0EFF9552056
:1014D00000F0ECF9552000F0E9F9FFF7D1FF962074
:1014E00001F004FBFFF7D4FFB6217E2000F024FAC0
:1014F000FFF7C6FF502001F0EEFAFFF7C9FF80208A
:1015000000F0D4F9552000F0D1F9552000F0CEF9C3
:10151000FFF7B6FF962001F0E9FAFFF7B9FF802048
:1015200000F0C4F9552000F0C1F9552000F0BEF9D3
:101530000446FFF7A5FF962001F0D8FA1E2C02D032
:10154000FF20BDE8F0810024174FFFF7A1FF04EB57
:101550004405EE19785D717800F0EEF9FFF790FF21
:10156000962001F0C3FAFFF793FF785D40F080000A
:1015700000F09CF9552000F099F9552000F096F9FB
:101580000546FFF77DFF962001F0B0FA7078A8427B
:1015900004D004EB440038448078D2E7641CE4B201
:1015A000062CD2D30020CCE7740300200122114680
:1015B000014802F099BD0000000402400022012110
:1015C000014802F091BD000000040240F8B500207F
:1015D0000090FFF7F3FF6946002000F05BF9FFF78A
:1015E000E5FF962001F082FAFFF7E8FF6946002048
:1015F00000F050F9FFF7DAFF962001F077FAFFF7D5
:10160000DDFFB621142000F097F9FFF7CFFF50203F
:1016100001F061FAFFF7D2FF6946002000F03AF9C5
:10162000FFF7C4FF962001F061FAFFF7C7FF694694
:10163000002000F02FF9FFF7B9FF962001F056FACD
:101640009DF800000F2801D0FF20F8BD0024154FA1
:10165000FFF7B4FF04EB4405EE19785D717800F0F4
:101660006BF9FFF7A3FF962001F040FAFFF7A6FF02
:10167000785D694600F00EF9FFF798FF962001F0BB
:1016800035FA70789DF80010884204D004EB4400CD
:1016900038448078F8BD641CE4B2062CD8D300200E
:1016A000F8BD0000860300207CB5044600200090B1
:1016B0000190FFF7EDFE922000F0F8F8062269464F
:1016C000122000F0D5F8FFF7DBFE9DF800009DF832
:1016D000011040EA012000B220849DF802109DF81C
:1016E000032041EA022109B261849DF804209DF89B
:1016F000053042EA032212B2A28400EE100A454DE0
:10170000F8EEC00A95ED000A60EE800AC4ED010A09
:1017100000EE901AF8EEE00A60EE800AC4ED020ACC
:1017200000EE902AF8EEE00A20EE800A84ED030A2B
:10173000FFF7AEFEA22000F0B9F80222694622208F
:1017400000F096F8FFF79CFE9DF800009DF8011050
:10175000C00040EA5110A085B0F5806F02DBA0F513
:101760000060A085B4F92C00B4EE001A00EE100A57
:10177000F8EEC00AB3EE070A00EE810A84ED070A0C
:10178000FFF71CFF08226946002000F071F8FFF700
:101790000DFF9DF800000F2814D19DF802009DF860
:1017A000031040EA0120E0849DF804009DF8051034
:1017B00040EA012020859DF806009DF8071040EAC8
:1017C00001206085B4F92600D4ED0C0A00EE100A61
:1017D000B8EEC01A95ED010A50EE010AC4ED040AF4
:1017E000B4F92800D4ED0D0A01EE100AB8EEC11AC2
:1017F00050EE010AC4ED050AB4F92A00D4ED0E0A30
:1018000001EE100AB8EEC11A50EE010AC4ED060A44
:101810007CBD00006C03002070B50024FFF740FE83
:1018200040EA0405FFF7D2FE40EA0504022001F079
:1018300052F9002CF2D1BDE87040014800F002B826
:10184000380B00209FED070A80ED0C0A9FED060A79
:1018500080ED0D0A9FED050A80ED0E0A0121017051
:1018600070470000B1981EBACB4FCBBBC334933A3C
:1018700070B50D46144640F0800000F017F806E001
:10188000552000F013F805F8010B641EE4B2002C9B
:10189000F6D170BD10B50C4640F0800000F006F89F
:1018A000552000F003F8207010BD000001B582B093
:1018B000002001904FF47A700090012301AA02A940
:1018C000024803F0ADFD9DF804000EBD4813002052
:1018D00010B5F0EE400A9FED130A13480AF02EFDF2
:1018E0001148124A90ED0A0A10EE101A914204DDD6
:1018F0009FED0F0A80ED0A0A08E0B5EEC00AF1EE8E
:1019000010FA03D29FED0B0A80ED0A0A90ED0A0A45
:10191000BDE81040BCEEC00A10EE100A80B204F020
:101920005FBC0000000020422809002000409C46C7
:1019300000409C460000000010B50C46FFF7B6FFC3
:101940002046BDE81040FFF7B1BF000000B58BB0E6
:10195000282101A8FFF7C4FB01210991002007906D
:1019600008910190029003900490069005900A90CF
:1019700001A9104801F03CFD08B101F02EFC0D4812
:1019800002F093F802210B4801F0A6FC0E2006900D
:101990000A9001A9084801F02BFD08B101F01DFCD7
:1019A000054802F082F80221034801F095FC0BB0D3
:1019B00000BD0000F8120020201300200D490A6825
:1019C00042F080720A600C4900224A600B6843F0C2
:1019D00001030B6009494843094908604FF47A73D1
:1019E000B0FBF3F34B60054BB0FBF3F08860CA60CB
:1019F00070470000FCED00E0001000E040420F00E6
:101A00002803002008B5242000900948094B0168EC
:101A1000A3F12402091D07F073F964200090064821
:101A2000064B0168A3F16402091D07F069F908BDBE
:101A300074140020980B0020301400208C0C00201F
:101A40000021014804F0BCB8E8130020FEE70000C4
:101A5000014801F0D9BD0000F812002070B504461D
:101A60000D460C4A2946204606F038FB094A29460D
:101A70002832204606F032FB074A2946204600F06D
:101A800023FF29462046BDE87040034A283200F073
:101A90001BBF0000C803002018040020014801F00B
:101AA000B3BD00002013002070B505460C46124A55
:101AB0002146284600F008FF104928680A6890422D
:101AC00012D12078087160784871E078A27840EAF5
:101AD0000222CA806079227940EA02220A81E079F2
:101AE000A27940EA0220488121462846BDE870409C
:101AF000034A06F075BC000068040020E8020020DC
:101B0000940400201CB54FF0000BCDF800B0374C0A
:101B10004FF0A10804F1080004F11107344DDFF87B
:101B2000D490DFF8D4A07E1E01900AF05FFD0090F3
:101B300084F80080B5F860012071000A6071082304
:101B40002A4A4FF4A271484609F096F884F80880B2
:101B5000B5F862012073000A6073082340F2431154
:101B60004846019A09F088F82449B5F86421087BB1
:101B7000130A8355C255B5F8662191F83400130A4B
:101B80008355C255801CC3B2C96A3246484609F023
:101B900073F8E8788AF800008AF801B01849C88C10
:101BA000020A8AF802208AF803008AF804B08AF848
:101BB00005B0B1F81B00010A8AF806108AF8070080
:101BC00008230D4A4FF481710E4809F055F8009929
:101BD0000520B1FBF0F200FB121008B906F0D4FAB0
:101BE000012168460AF0F5FC9FE70000C0070020CD
:101BF00018000020006400400100002018040020AC
:101C0000F00C00200068004004284FF000007047EE
:101C10000020704710B500220449054807F0B0FACB
:101C20000449034807F09EFA002010BDEC83002011
:101C300010770020EC7B002010B50446204605F00C
:101C40009FFA2146034807F08DFA024807F05EFA32
:101C5000002010BD10770020002070472DE9F05FB4
:101C60000CAFDDE90AC997E8804CDDF840800546F5
:101C700000240E5D2E55641CE4B2032CF9D315F834
:101C8000031F62F3020141F038012970298863F3D0
:101C90008911298069786CF385016970B5F80110A4
:101CA00069F38E11A5F80110698867F3CF11698077
:101CB000A9886AF30901A980B5F805106BF38C01B6
:101CC000A5F80510E9886EF34F11E98029896FF3B3
:101CD00009012981B5F809104EF203021140A5F857
:101CE0000910A97A01F01F0169810F3013220549FB
:101CF0000446FFF754F93A4641462046BDE8F05FF6
:101D0000FFF74DB92006002010B51E4900204A7883
:101D1000052A00D348701C4CA52104F8011C33216E
:101D20002180A07004F17F0054F8011C4163E17828
:101D300080F83810052134300AF03EFA40F20130C4
:101D4000A0804FF48870E0801048C078208140F473
:101D50008070608100F0DCFE34F801290A48921C92
:101D6000611DB830FFF71BF907483C21B3300AF07A
:101D70000DFA05493C22BDE81040B331044804F097
:101D8000D5B90000AC040020260D0020F00C002086
:101D90003014002010B51C4CA52004F8010C6F2055
:101DA00020800020A07004F14300A0F18001CA6BE4
:101DB000426391F8401080F83810052134300AF061
:101DC000FBF940F20130A0804FF48270E0800F48B0
:101DD000C078208140F48070608101F021F834F8EF
:101DE00001290948921C611D7C30FFF7D8F806488C
:101DF000782177300AF0CAF903497822BDE810400B
:101E00007731034804F092B9620D0020F00C0020F5
:101E1000301400200178DFED551A042967D0002224
:101E200000297CD090ED460AD0ED470A30EE200A1A
:101E300060EE210A90ED1D0A60EE800AFDEEE00AD8
:101E400010EE901AA0F86011D0ED480A90ED491AF2
:101E500070EE810A60EEA10A20EE800ABDEEC00A93
:101E600010EE101AA0F8621190ED4A0AD0ED4B0A5C
:101E700070EE200A9FED3E0A60EE800AFDEEE00A59
:101E800010EE901AA0F86411D0ED4C0A90ED4D1AA6
:101E900070EE810A20EE800ABDEEC00A10EE101A24
:101EA000A0F8661190ED120AD0ED030AB4EE600AB4
:101EB000F1EE10FA06D0D0ED040AB4EE600AF1EEAD
:101EC00010FA01D1A0F8642190ED130AD0ED050AB3
:101ED000B4EE600AF1EE10FA06D0D0ED060AB4EEC8
:101EE000600AF1EE10FA01D1A0F86621704721498D
:101EF00090ED0C0A9FED202AB1F91420F1EE400A72
:101F000001EE102AF0EE002AB8EEC11A41EE420AA4
:101F100020EEA23AD0ED470A00EEA13A00E01EE022
:101F200090ED1D1A23EE013ABDEEC33A13EE102ACE
:101F3000A0F86021B1F93C1003EE101AB8EEC33AD4
:101F400003EE420A20EE220A00EEA10A20EE010A68
:101F5000BDEEC00A10EE101AA0F86211704700F52D
:101F6000B070028042808280C28070470000C84208
:101F70000000FA43C8030020C5DEE33E10B5044666
:101F80002DED048BFE48C08C00EE100AF8EE400ADE
:101F90009FEDFC1A80EE810A84ED1D0A10EE100AF6
:101FA0009FEDF98AB0F17E5F04DDB7EE000A84EDA3
:101FB0001D0A06E0B5EEC00AF1EE10FA01D284ED7A
:101FC0001D8AF249606F88420ADD0CF087FC41EC03
:101FD000100B09F0B5FF51EC100B0BF0C1F9606765
:101FE000EB48B0F90800142861DD04F099FDE8B36E
:101FF0000120E07094ED0E0AD4ED0F0A70EE600A35
:102000009FEDE40A80EE801A84ED4E1AD4ED190A91
:10201000C4ED4F0AD4ED0B0A94ED111A70EEC10A0B
:10202000C4ED500AD4ED120ADFEDDB8A80EEA81A67
:1020300084ED511AD4ED130A80EEA81A84ED521AD9
:10204000D4ED0C0A94ED141AD44870EEC10A80EE57
:10205000809A90ED000AB0EEC00A9FEDD11ADFED34
:10206000D10A0AF033F929EE000A00E01FE084EDFE
:10207000530AD4ED0D0A94ED151A70EEC10AC4EDA1
:10208000540A94ED161AB1EE411A84ED551A94EDE6
:10209000172AC2EE281AC4ED561AD4ED182A82EE79
:1020A000A82A84ED572A2078032803D004E00020D2
:1020B000E0709FE784ED4F8AD4ED1E2AD4ED203ADC
:1020C00094ED214AB1EE623AD4ED4E2A94ED225AB3
:1020D00063EE224A94ED503A43EEC34AD4ED513AAE
:1020E00044EE634A94ED524A45EE444A94ED235A35
:1020F00045EE004A94ED255A45EE414A94ED265AA4
:1021000045EE214A94ED275A45EE024AC4ED464A6F
:1021100094F96C0005EE100AB8EEC55AF4EEC54A03
:10212000F1EE10FA06DD04EE900AF8EEE44AC4ED92
:10213000464A0FE0414205EE101AB8EEC55AF4EED9
:10214000C54AF1EE10FA05D204EE901AF8EEE44A10
:10215000C4ED464A94ED1F5AD4ED4F4AD4ED245AAB
:1021600025EE245A05EEA05A84ED475A94F96D10D5
:1021700005EE901AF8EEE55AB4EEE55AF1EE10FAD3
:1021800006DD05EE101AB8EEC55A84ED475A0FE089
:102190004A4205EE902AF8EEE55AB4EEE55AF1EE21
:1021A00010FA05D205EE102AB8EEC55A84ED475A4A
:1021B00094ED285AD4ED2A5A25EE225A05EE835A78
:1021C000D4ED2B5A05EEA35AD4ED2C5A05EE845AC1
:1021D000D4ED2D5A05EEC05AD4ED2F5A05EE815A92
:1021E000D4ED305A05EEE15AD4ED315A05EEC25A1B
:1021F00084ED485A05EE900AF8EEE55AB4EEE55A39
:10220000F1EE10FA06DD05EE100AB8EEC55A84EDBF
:10221000485A0FE0404205EE900AF8EEE55AB4EE57
:10222000E55AF1EE10FA05D205EE100AB8EEC55ADD
:1022300084ED485A94ED295AD4ED2E5AB1EE455A00
:1022400025EE245A05EEE05A84ED495A05EE901A1F
:10225000F8EEE55AB4EEE55AF1EE10FA06DD05EEB9
:10226000101AB8EEC55A84ED495A0FE0484205EEFF
:10227000900AF8EEE55AB4EEE55AF1EE10FA05D2FE
:1022800005EE100AB8EEC55A84ED495A94ED325A5B
:10229000D4ED345A25EE225A05EE835AD4ED355A40
:1022A00005EEA35AD4ED365A05EE845AD4ED375ACA
:1022B00005EEC05AD4ED395A05EE815AD4ED3A5A9A
:1022C00005EEE15AD4ED3B5A05EEC25A84ED4A5A66
:1022D00094F96E0005EE900AF8EEE55AB4EEE55A70
:1022E000F1EE10FA06DD05EE100AB8EEC55A84EDDF
:1022F0004A5A0FE0414205EE901AF8EEE55AB4EE64
:10230000E55AF1EE10FA05D205EE101AB8EEC55AEC
:1023100084ED4A5A94ED385AD4ED335A25EE205ABA
:1023200005EEE45A84ED4B5A94F96F1005EE901ABD
:10233000F8EEE55AB4EEE55AF1EE10FA06DD05EED8
:10234000101AB8EEC55A84ED4B5A0FE04A4205EE1A
:10235000902AF8EEE55AB4EEE55AF1EE10FA05D2FD
:1023600005EE102AB8EEC55A84ED4B5A94ED3C5A4E
:10237000B1EE455A65EE222A94ED3E5A14E0000073
:10238000F00C00200000704200000000CDCCCC3EDC
:10239000E80200200000C8420000C8C280080020F7
:1023A000000018429A99193F45EE432A94ED3F3AAE
:1023B00043EE632A94ED403A43EE442A94ED413AC9
:1023C00043EE002A94ED430A40EE412A94ED440A7C
:1023D00040EE212A94ED450A40EE022AC4ED4C2A33
:1023E00000EE100AB8EEC00AF4EEC02AF1EE10FAC0
:1023F00006DD00EE100AB8EEC00A84ED4C0A0FE0CC
:10240000404200EE100AB8EEC00AF4EEC02AF1EE27
:1024100010FA05D200EE100AB8EEC00A84ED4C0A9C
:1024200094ED3D0A94ED421A20EE240A01EE600A72
:1024300084ED4D0A00EE901AF8EEE00AB4EEE00AE0
:10244000F1EE10FA08DD00EE101AB8EEC00A84EDC5
:102450004D0ABDEC048B10BD484200EE900AF8EE28
:10246000E00AB4EEE00AF1EE10FAF2D200EE100A41
:10247000B8EEC00A84ED4D0AEBE7000070B50446E3
:102480002DED028B01202178022918D00021A170A6
:1024900094ED100ADFEDB50A30EE601AF0EEC11AC5
:1024A0009FEDB31A30EE410AB0EEC00AF4EEC01A46
:1024B000F1EE10FA05D86070C4ED090A05E0A070CD
:1024C000E6E7FF20607084ED091AAA48B0F906001B
:1024D0009FEDA98A90B394F90110B7EE001A494212
:1024E000414300EE101AF8EEC00A94ED0C0A09F010
:1024F000EBFF84ED0C0AB4F9680000EE900AF8EEE8
:10250000E00AB4EEE00AF1EE10FA06DD00EE100A81
:10251000B8EEC00A84ED0C0A82E0404200EE900A58
:10252000F8EEE00AB4EEE00AF1EE10FA78D200EE2E
:10253000100AB8EEC00A84ED0C0A71E0FFE704F05F
:102540007FFBDFED8E8A10B904F008FBD8B304F0EE
:1025500005FB054604F074FB94F90110B4F86820FB
:10256000281A11FB02F1484300EE100AB0EE681A77
:10257000F8EEC00A94ED0C0A09F0A6FF84ED0C0AEF
:10258000B4F9680000EE900AF8EEE00AB4EEE00A52
:10259000F1EE10FA06DD00EE100AB8EEC00A84ED86
:1025A0000C0A3DE0404200EE900AF8EEE00AB4EE7C
:1025B000E00AF1EE10FA33D200EE100AB8EEC00ACB
:1025C00084ED0C0A2CE0FFE794ED0C0AB0EE681ADB
:1025D000F0EE480A09F078FF84ED0C0AB4F96800BF
:1025E00000EE900AF8EEE00AB4EEE00AF1EE10FA1E
:1025F00006DD00EE100AB8EEC00A84ED0C0A0FE00A
:10260000404200EE900AF8EEE00AB4EEE00AF1EE85
:1026100010FA05D200EE100AB8EEC00A84ED0C0ADA
:10262000207803287DD084ED0D8A84ED0E8A5448ED
:1026300094ED0F0AD4ED140A90ED021A00EEC10ACF
:1026400084ED0F0AB4F96A00F0EEC00A00EE100A39
:10265000B8EEC00AF4EEC00AF1EE10FA01DD84ED26
:102660000F8A484DB5F9660000EE100AB8EEC00AB0
:10267000DFED450A20EE200A84ED100AA07804EB75
:102680008000D0ED090A30EE600ADFED400A08F064
:102690006CFBDFED3F0A20EE200A84ED190A3D4E67
:1026A00096ED090A84ED110AD5ED110A95ED070A98
:1026B000204604F031FE38499FED388A94ED161A11
:1026C000B1F93C00B1F91410DFED351A421A00EEF1
:1026D000102AF8EEC00AB6EE000A60EE800A60EE3C
:1026E000880A41EE610AC4ED140A084400EE900A1B
:1026F000F8EEE00A20EE800ADFED2A0A20EE080A52
:1027000080EE201A84ED151A96ED080AFDF730FECA
:10271000D6ED0A0A60EE208A96ED080AFDF764FEFF
:1027200000E01DE0D6ED0C0A40EEC08AC4ED168A2A
:10273000B5F91400404200EE100AB8EEC00A20EECF
:10274000080A84ED170AB5F93C0000EE100AB8EE4D
:10275000C00A20EE080A84ED180ABDEC028B70BD99
:10276000B2EE000A84ED0D0A5FE70000662686439C
:102770009A99B0429404002000000000CDCC4C3E59
:102780000C000020180400200000343D00003443F9
:1027900035FA8E3C80080020C8030020C5DEE33EE9
:1027A0003D0AD73D00004C422DE9F04104461B4E46
:1027B00002270025B07A032806D002280CD0257005
:1027C00004F0E8F968B909E004F06EF908B127707F
:1027D000F6E701202070F3E72770F1E73089012840
:1027E00003D1207808B10320207004F07BF918B9D8
:1027F000B6F90800401C01D104202070207908B1EE
:10280000607900B925700648017819B1217809B9B5
:102810002571657121780170BDE8F0819404002074
:102820000C00002008B5002500951B4A01211B481B
:1028300004F0DCFE1948184A0121503004F0D6FE9D
:10284000174E06F10C0409F0D1FE00901448001D4B
:1028500000F01CF986ED020A11480C30FFF7A4FFC6
:102860000F480C30FFF70AFE2079012802D1607969
:10287000012808D0A4F86051A4F8625101216846EB
:1028800009F0A7FEDFE706480C30FFF777FB0448A6
:102890000C30FFF7BFFAF1E780010020E0070020CD
:1028A0000C00002090F82010002250290AD9818CB9
:1028B000491C89B28184C82903D9022180F82610D5
:1028C000828470478284704710B514460068A268FD
:1028D00090423AD1887984F8200048780A7840EA12
:1028E0000220E082C8788A7840EA0220A0824879F3
:1028F000097940EA012060822046FFF7D3FF207C5F
:10290000012812D0A068B0F5017F06D940F2FF116E
:102910006160401F4000207307E04FF4007188425F
:1029200003D96160401E4000207322784FF40051AB
:1029300004F1100052B1012A0FD0022A05D19FEDF7
:102940000A0A09F063FC84ED070A10BDB7EE000A1D
:1029500009F05CFC84ED070A10BD9FED040A09F044
:1029600055FC84ED070A10BD000010422CA09941CF
:10297000014801F027B9000078150020014801F056
:1029800021B90000B8140020014801F01BB9000073
:10299000181500200168CAB2103A1823B2FBF3F2EE
:1029A000064B9B5CC3656FF30901032A02D9091D1D
:1029B000816500E08165806D7047000068F1000866
:1029C00010B5014600208A6A8B694FF0C074002B55
:1029D0000ED0B3F5005F1AD062B3012A2AD0022AC2
:1029E00028D0032A03D1C96AC90100D5012010BD2E
:1029F0001AB1012A06D0022AF9D1C96AC901F6D54D
:102A0000012010BDC96AA142FBD1012010BD52B105
:102A1000012A0AD0022A06D0032AF7D1C96AA142A4
:102A2000F4D1012010BD012010BDC96AC901FBD538
:102A3000012010BD012010BD30B50468256825F4C3
:102A400080252560046863608368402B04D0036898
:102A500099600068C26030BD03689A600068C16018
:102A600030BD000008B5074840680090064800994E
:102A70000269914202D2C168491CC160009901619A
:102A800008BD0000001000E02803002000B52DED77
:102A9000028B81B00D49496800910168009A511A72
:102AA00000EE101A0A49F8EE400A91ED000AB8EE5D
:102AB000400A80EE808A00990160FFF7D3FF01B0E1
:102AC000B0EE480ABDEC028B00BD0000001000E033
:102AD00028030020704770B5054601F00DFB044641
:102AE00001F00AFB001BA842FAD370BD70B5054681
:102AF00003F068FB044603F065FB001BA842FAD311
:102B000070BD05F035FD0A2009F05BFDF9E7000016
:102B10002DE9F04F87B0DFF8E4921E250F2699F8D3
:102B20000110DFF8DC820127022409F108000029E6
:102B300023D001294ED002297DD003297CD004293D
:102B400018D1C07809F5AB7A4FF4227B012874D0F4
:102B50005046FEF705FACDE905BACDE9007602AE9A
:102B6000002331C60122A7A14046FFF777F80520D0
:102B700089F8010007B0BDE8F08F0078DFF87CA28B
:102B80004FF4587B0AF10C0A012811D05046FEF789
:102B9000E7F9CDE905BACDE9007602AE002331C6EA
:102BA000012299A14046FFF759F889F80170E1E741
:102BB00092480C30FEF7D4F9CDE90345CDE905BACA
:102BC000CDE900460290002301228FA14046FFF785
:102BD00045F8EAE7807840F22A3A30B1012818D067
:102BE00002282ED0032840D052E084482A30FEF735
:102BF000B7F9CDE9045A8149CDE90076CDE902045F
:102C00002A3106910023012280A14046FFF726F8D1
:102C10003EE07A484830FEF7A3F97849CDE903450C
:102C20004831CDE905A1CDE90046002302900122FB
:102C300076A1404602E02EE0A0E0CDE0FFF70EF8DE
:102C400026E06E486630FEF78BF96C49CDE9034506
:102C50006631CDE905A1CDE90046029000230122AD
:102C60006AA14046FEF7FAFF12E064488430FEF79E
:102C700077F96249CDE903458431CDE905A1CDE974
:102C8000004602900023012260A14046FEF7E6FFC5
:102C900089F801406EE75E484FF43D7A017841B112
:102CA00001291AD002292CD003293ED0042950D062
:102CB00060E05248A230FEF753F9CDE9045A4F497B
:102CC000CDE90076CDE90204A2310691002301226C
:102CD00050A14046FEF7C2FF4CE04848C030FEF726
:102CE0003FF94649CDE90345C031CDE905A1CDE91C
:102CF000004602900023012246A14046FEF7AEFFA7
:102D000038E03E48DE30FEF72BF93C49CDE903457B
:102D1000DE31CDE905A1CDE9004602900023012274
:102D20003CA14046FEF79AFF24E03448FC30FEF711
:102D300017F93249CDE90345FC31CDE905A1CDE9CB
:102D4000004602900023012232A14046FEF786FF92
:102D500010E03148FEF704F92F49CDE90345CDE9EC
:102D600005A1CDE9004602900023012229A1404699
:102D7000FEF774FF032089F80100FBE64078DFF8D6
:102D800098A040F2BE2B0AF11E0A012812D050462C
:102D9000FEF7E6F8CDE905BACDE9007602AE0023EC
:102DA00031C601221DA14046FEF758FF042089F8D4
:102DB0000100DFE618481E30FEF7D2F8CDE90345E2
:102DC000CDE905BACDE9004602900023012213A106
:102DD0004046FEF743FFE9E70F483C30FEF7C0F8F6
:102DE000CDE90345CDE905BACDE9004602900023BF
:102DF000012204A14046FEF731FFB8E6AC040020F2
:102E0000320D0020434C3500434C3100434C32001E
:102E100018000020434C3300C6050020434C34000A
:102E20002DE9F04F2DED028B8BB000244FF4207173
:102E30000694CDE90741642009904FF003080294FD
:102E4000CDE903484FF001094FF40770CDE900893F
:102E5000059023464A46CFA1CF4800F0D7F94FF45A
:102E6000A0600694CDE907406421099103210294F2
:102E7000CDE9034140F2645005900120CDE90010F6
:102E80000246C5480023C5A10F3000F0BFF9C44871
:102E9000B0F90A1000EE101AF8EEC00AB2EE080AF5
:102EA00070EEC01AF2EE060A81EEA01A9FEDBD8AFE
:102EB000BD4F21EE081A11EE10CA9FEDBC1AB6489C
:102EC00014220A263C300224B94DF1EE081A40F2D1
:102ED0009E23BC451FDB02EE101A0021CDE906211E
:102EE000B8EEC22A32EE400A80EE202A22EE080A0C
:102EF00000EE211ABCEEC10A8DED080A0094CDE95E
:102F0000046302910391019409920B462A78A9A1C6
:102F100000F07CF92DE002EE101AB8EEC22A72EE33
:102F2000402A82EEA02A22EE082A12EE10CABC45E0
:102F30001FDA02EE101A0021CDE90621B8EEC22AEE
:102F400032EE400A80EE202A22EE080A00EE211A14
:102F5000BCEEC10A8DED080ACDE90463029103912C
:102F60000421CDE90041099200232A7891A100F0C3
:102F70004DF9914F884840F22A3A97ED100AD7ED63
:102F80000A0A97ED091A0D3870EE600A30EE410A10
:102F900000F158012B30F0EEE00AB0EEC00A40F22A
:102FA000EA66F4EEC00A0A91F1EE10FA44D24FF04C
:102FB000000BCDE907B6CDF808B0CDE903B8CDE9EF
:102FC00000494FF45872CDE905624FF43D71099103
:102FD0005B462A7879A100F019F97949786A884224
:102FE00013D1CDE906ABCDF808B0CDE903B84FF465
:102FF000E460CDE90049CDE9080A059600232A7866
:1030000070A10A9800F002F95AE06F49884257D13E
:10301000CDE906ABCDF808B0CDE903B8CDE900495C
:1030200040F2B460CDE9086A059000232A7865A1D2
:103030000A9800F0EBF843E04FF4E4614FF0000B26
:10304000CDE9081ACDE906ABCDF808B0CDE903B853
:10305000CDE9004940F2B46105915B462A7857A159
:1030600000F0D4F85649786A884213D14FF458706A
:10307000CDE90860CDE906ABCDF808B0CDE903B8DD
:10308000CDE90049059600232A784EA10A9800F060
:10309000BDF815E04C49884212D14FF43D70CDE99E
:1030A0000860CDE906ABCDF808B0CDE903B8CDE9AD
:1030B0000049059600232A7842A10A9800F0A6F854
:1030C000DFF808B19BED090AFDF78EF997F90100C9
:1030D000DFF8DCA000EE900A0AF1040AF8EEE00A3C
:1030E00020EE200A20EE080ABDEEC00A10EE100AFB
:1030F000AAF800009BED090AFDF73AF997F90100DB
:1031000000EE900AF8EEE00A20EE200A20EE080A0F
:10311000BDEEC00A10EE100A00B2AAF80200BAF919
:1031200000106FF06302642903DD6421AAF8001027
:1031300003E0914201DAAAF80020642803DD64204C
:10314000AAF8020003E0904201DAAAF80220BAF9D4
:103150000000BAF90210A0F2EA60424200204FF4E7
:103160002273CDE90630CDE90049CDE9048601F5A9
:103170002271CDE9082102900346039006482A787F
:1031800013A12D3000F042F80BB0BDEC028BBDE86E
:10319000F08F0000414C31006E0D0020414C320098
:1031A000E80200200000C8420000A041008027443F
:1031B000AC040020414C350018000020414C330085
:1031C00066268643414C36009A99B042800800201A
:1031D000414C3400202000F093BE72B6FEE70000A0
:1031E000F6EE000A60EE200A10EE100A0649A1EB86
:1031F000600000EE100A20EE801AF7EE080A41EE99
:10320000400A20EE800A7047865A375F2DE9F04F5A
:103210000DF13008DDE90A7C98E8004F099E002492
:103220000D5D0555641CE4B2032CF9D310F8031F9F
:1032300062F3020163F3C5010170018866F389112D
:103240000180417867F385014170B0F801106CF39B
:103250008E11A0F80110418868F3CF114180818858
:1032600069F309018180B0F805106AF38C01A0F8B8
:103270000510C1886BF34F11C18001896EF30901FC
:103280000181B0F80920119961F38C02A0F809209E
:103290004289129961F34F124281BDE8F08F00001C
:1032A00010B50B480168001D0468001D0068084443
:1032B00000280BD00822074903F080F80549204672
:1032C0000422BDE81040103103F078B810BD0000B2
:1032D000107AFF1F0207002090F82020012A07D053
:1032E000022A05D0416A41F48021416201207047E1
:1032F000006842690A43426100207047F0B590F8C7
:1033000020500468A468012D07D0022D05D0416A21
:1033100041F4802141620120F0BD04F0806504F099
:103320000066354301D1E5005BD5C4F30164022C8E
:1033300005D9416A41F4000141620120F0BD012537
:10334000A5401D608B684FF4C0759BB1CE6805EB3E
:10335000041733434E6843EAC6030668F3514FF43B
:10336000C273076803EB04130E69FE50097D01293F
:1033700009D00DE00E88CB6805EB041743EA4653ED
:103380000668F351EBE70168CE5846F48076CE50DC
:103390001179D379567941EA036193791B0443EAA1
:1033A000062319434FF4C676036806EB04169951B9
:1033B0001178D37841EA0361937852781B0443EA89
:1033C000022211434FF4C473026803EB0413D1507B
:1033D000006805EB0411425842F0010242500020FF
:1033E000F0BD416A41F4001141620120F0BD0000CE
:1033F00010B590F82020012A07D0022A05D0416A92
:1034000041F480214162012010BD3C4800F500706C
:10341000026842F001020260026822F47C520260FB
:1034200002684B6A42EA032202600A7D02F01F032F
:1034300001229A40C3699343C361A0F50070CB6930
:10344000B3B9D0F80C329343C0F80C328C894B6876
:1034500064F31F434C6900EBC404C4F840320C8988
:103460000B6864F31F434C6900EBC404C4F8443296
:10347000CB69012B16D1D0F80C321343C0F80C32B3
:103480000C884B6864F31F434C6900EBC404C4F818
:1034900040320C89CB6864F31F434C6900EBC404D1
:1034A000C4F844328B697BB1D0F804321343C0F8BE
:1034B00004320B6973B1D0F814321343C0F81432DC
:1034C000096A01290CD010E0D0F804329343C0F807
:1034D0000432EEE7D0F814329343C0F81432EFE729
:1034E000D0F81C121143C0F81C12D0F8001221F0C1
:1034F0000101C0F80012002010BD0000006400406F
:10350000704730B590F82040012C07D0022C05D030
:10351000416A41F480214162012030BD21B104683B
:103520002469A4075FD003E00468E468A40754D0CA
:103530004FF4D874056804EB01142D5905F0040507
:103540009560F5B305682D59ED08556005682C594F
:1035500004F00204D4604FF4DA74056804EB01143B
:103560002D5905F00F05156105682D59C5F307257F
:10357000956105682C59240C54614FF4DC72046881
:1035800002EB0112A4581C700468A458240A5C7051
:103590000468A458240C9C700468A258120EDA70B7
:1035A0004FF4DE72046802EB0112A4581C71046827
:1035B000A458240A5C710468A458240C9C71046803
:1035C00000E016E0A258120EDA71B9B10068016984
:1035D00041F020010161002030BD416A41F4001139
:1035E0004162012030BD416A41F400114162012075
:1035F00030BD05682D596D0D1560A7E70068C168DD
:1036000041F02001C160E6E72DE9F05F05460024A6
:1036100028684669D0F804908768D0F80CA0D0F8E4
:1036200010B0D0F81880F10748D0F90714D0012164
:103630008160B80703D5284600F064FA0CE07807EB
:1036400002D54FF4006407E0380702D54FF48054E8
:1036500002E0284600F055FAF80516D529684FF41F
:1036600080708860B80503D5284600F04DFA0CE05C
:10367000780502D544F4005407E0380502D544F437
:10368000804402E0284600F03EFAF80316D5296887
:103690004FF480308860B80303D5284600F036FA2E
:1036A0000CE0780302D544F4004407E0380302D567
:1036B00044F4803402E0284600F027FA300707D5AA
:1036C0005FEACA6004D544F4007429681020C86019
:1036D00070074FF0080707D55FEA0A7004D528681D
:1036E000C760284600F0B8F9B00706D52868C0685A
:1036F000800702D0284600F0B1F9700607D55FEACE
:10370000CB6004D544F48064296810200861B006B9
:1037100007D55FEA0B7004D528680761284600F0DA
:10372000C1F9F00606D528680069800702D028464E
:1037300000F0B9F9B00308D55FEAC96005D529687A
:1037400010204860284600F0AFF9F00307D55FEA83
:10375000097004D528684760284600F0D8F930047D
:1037600046D55FEA497040D5F00504D55FEAC870D8
:1037700001D044F00104B00504D55FEA887001D59A
:1037800044F00204700504D55FEA487001D544F0A6
:103790000404300529D518F0700F26D008F0700009
:1037A000402815D006DC102809D020280AD030285F
:1037B00016D10AE050280ED0602811D10EE044F056
:1037C00008040DE044F010040AE044F0200407E08F
:1037D00044F0400404E044F0800401E044F48074C8
:1037E0002868816921F0700181612968042048609E
:1037F000002C05D0686A204368622846FFF780FEE7
:10380000BDE8F09F70B50446002C03D094F820006A
:1038100010B104E0012070BD204600F09DF8206842
:10382000016841F00101016000F066FC05460526D3
:103830000CE000F061FC401B0A2807D9606A40F4E4
:103840000030606284F82060012070BD206840680C
:10385000C007EED02068016821F00201016000F08D
:103860004BFC05460CE000F047FC401B0A2807D93A
:10387000606A40F40030606284F82060012070BD0E
:10388000206840688007EED4207E01283FD0206861
:10389000016821F080010160607E01283DD0206830
:1038A000016821F040010160A07E01283BD0206822
:1038B000016821F020010160E07E012839D02068F4
:1038C000016841F010010160207F012837D0206895
:1038D000016821F008010160607F012835D020686F
:1038E000016821F004010160D4E902010843D4E930
:1038F0000412114308436168491E08432168C861E6
:1039000000206062012084F82000002070BD206843
:10391000016841F080010160BEE72068016841F064
:1039200040010160C0E72068016841F020010160AA
:10393000C2E72068016821F010010160C4E7206837
:10394000016841F008010160C6E72068016841F0A4
:1039500004010160C8E700002DE9F04186B004468B
:10396000142101A8FDF7BCFB364B374ADFF8D080A5
:1039700018682168344C03260227401C10320025A9
:103980004FF0090C414527D11860012807D1106874
:1039900040F000701060106800F000700090206827
:1039A00040F008002060206800F0080000900196B8
:1039B000029703950496CDF814C001A9234800F09E
:1039C000ABFA00220521142000F034FC142000F092
:1039D00023FC06B0BDE8F081DFF874804145F8D1E2
:1039E000116841F080611160116801F080610091FF
:1039F0001860012807D1106840F00070106010684E
:103A000000F000700090206840F002002060206804
:103A100000F0020000906020019002970395049648
:103A2000CDF814C001A90B4800F076FA0022052158
:103A3000402000F0FFFB402000F0EEFBC9E7000053
:103A4000006400405006002030380240000C024064
:103A500000680040000402407047000010B50446B2
:103A60000C4B0D4A00212046FFF74BFD0B49206807
:103A7000884205D1BDE8104006490748FDF7EEBF72
:103A80000749884205D1BDE8104002490248FEF7C7
:103A90000BB810BDE00200201C0B002000640040A9
:103AA0000068004070477047704770B5044694F84E
:103AB0002000012805D0606A40F4002060620120E7
:103AC00070BD022084F820002068016821F0010107
:103AD000016000F011FB05460DE000F00DFB401BFE
:103AE0000A2808D9606A40F400306062052084F832
:103AF0002000012070BD20684068C007EDD16062E1
:103B000070BD704770477047704770477047704787
:103B10002DE9F0410446A76D00F0EEFA054694F851
:103B200035000026022806D08020606584F83460C5
:103B30000120BDE8F0812068016821F016010160D4
:103B40002068416921F080014161206C08B9A06CB6
:103B500020B12068016821F0080101602068016837
:103B600021F0010101600BE000F0C6FA401B0528BE
:103B700006D9202034342062032060702670D8E7F4
:103B800020680068C007EFD134343F2094F8281033
:103B90008840B8600120607026700020C9E790F866
:103BA0003510022903D0802141650120704705218D
:103BB00080F835100068016821F0010101600020E3
:103BC000704700002DE9F84304464FF00009CDF896
:103BD00000906F484FF416510068B0FBF1F7A56DE7
:103BE0002E6894F85C00082202FA00F1314210D0ED
:103BF0002068016849070CD5016821F004010160C3
:103C000094F85C0002FA00F1A960606D40F00100D8
:103C1000606594F85C104FF0010808FA01F030423A
:103C200008D021684969090604D5A860606D40F094
:103C30000200606594F85C1004208840304208D08F
:103C400021680968890704D5A860606D40F0040008
:103C5000606594F85C1010208840304220D02168C4
:103C6000096809071CD5A8602068016849030CD5BC
:103C70000068000304D4216C91B1204688470FE00E
:103C8000A16C69B1204688470AE00168C90503D4E0
:103C9000016821F008010160216C09B120468847C4
:103CA00094F85C102020884030424CD0216809688C
:103CB000C90648D5A86094F8350005280BD02068BF
:103CC0000168490330D50068000328D4616C51B302
:103CD0002046884737E02068016821F0160101601E
:103CE0002068416921F080014161206C08B9A06C15
:103CF00020B12068016821F00801016094F85C108F
:103D00003F208840A86084F8358084F83490216D85
:103D100000293BD001B02046BDE8F0430847E16BE5
:103D200009B1204688470EE00168C90507D401683B
:103D300021F01001016084F8358084F83490E16B43
:103D400009B120468847606D00281FD0606DC0070C
:103D500014D0052084F835002068016821F00101A5
:103D600001600098401C0090B84203D820680068A9
:103D7000C007F6D184F8358084F83490E16C0029CE
:103D800004D001B02046BDE8F0430847BDE8F88301
:103D9000540600202DE9F041044600F0ADF9054637
:103DA0005CB1022084F83500002684F83460206875
:103DB000016821F0010101600DE00120BDE8F08102
:103DC00000F09AF9401B052805D9202060650320E2
:103DD00084F83500F2E720680068C007F0D1216858
:103DE0000A6820480240D4E901031843D4E90335A6
:103DF0002B43184363691843A3691843E3691843C5
:103E0000236A18431043626A042A03D1D4E90B23BE
:103E10001A43104308602068406920F00700656A73
:103E200029460543012704290DD1A06A0543E06A0C
:103E300048B12046FEF7C4FD28B14020606584F8F3
:103E400035700120BAE7206845612046FEF7A2FDE3
:103E500094F85C203F2191408160666584F835705C
:103E60000020ABE73F8010F02DE9F041044600252B
:103E7000A66D94F8340001280DD0012084F8340098
:103E800094F835700020012F07D084F83400022503
:103E90002846BDE8F0810220FBE7022784F8357050
:103EA00060652046FEF7C8FD94F85C103F2088400E
:103EB000B0602068016841F016010160206C20B1FB
:103EC0002068016841F0080101602068016841F044
:103ED00001010160DCE7000070B5044600F00CF958
:103EE0000546601C02D004480078044400F004F940
:103EF000401BA042FAD370BDC006002070470000EE
:103F000010B504490A68024202D00860FFF7F6FFC4
:103F100010BD0000143C01402DE9F84F0022DFF8ED
:103F20009C914FF0010803274FF00F0C09F1040A90
:103F3000A9F1040B08FA02F50B682B40AB426ED1D5
:103F40000C7904F00304012C01D0022C15D18668F1
:103F5000540007FA04FE26EA0E06D1F80CE00EFA29
:103F600004FE4EEA060EC0F808E04468AC430D7942
:103F7000C5F300159540254345600C79E443A4073B
:103F800008D0C568540007FA04F6B5438E68A64009
:103F90002E43C6600C7904F00304022C11D1D4081E
:103FA00000EB8406356A5407E40E0CFA04FE25EA99
:103FB0000E05D1F810E00EFA04FE4EEA050EC6F822
:103FC00020E00568540007FA04F6B5430E7906F0C0
:103FD0000306A6402E4306604C6814F4403F67D0A9
:103FE000374C256845F480452560246804F48044F6
:103FF0000094344C22F003052E19D6F80858940783
:104000004FEA147E0CFA0EF4A5432F4CA04201D1C6
:10401000002424E02D4CA04202D101241FE047E0FF
:104020002B4CA04201D1022419E02A4CA04201D11C
:10403000032414E0284CA04201D104240FE0274CB3
:10404000A04201D105240AE0254CA04201D106245A
:1040500005E0244CA04201D1072400E0082404FA22
:104060000EF42C43C6F80848D9F800409C434D682C
:10407000ED0200D51C43C9F80040DAF800409C432B
:104080004D68AD0200D51C43CAF80040DBF8004083
:104090009C434D68AD0300D51C43CBF80040074D51
:1040A000083D2C689C434E68F60300D51C432C60E9
:1040B000521C102AFFF43EAFBDE8F88F083C0140C7
:1040C0004438024000300140000002400004024039
:1040D00000080240000C02400010024000140240A0
:1040E00000180240001C0240002A01D08161704784
:1040F0000904816170470000014880687047000032
:10410000C00600200248816802781144816070472F
:10411000C006002010B50B48016841F40071016031
:10412000016841F480610160016841F480710160BF
:10413000032000F09FF80F2000F006F800F050F880
:10414000002010BD003C024030B587B00546002479
:104150001F48016841F001010160006800F00100A2
:10416000009001A902A800F04BFE0598B0B100F044
:104170006BFE40001749B0FBF1F1491E16484FF0A5
:104180008042026040F2E732C260416004618460B4
:10419000846101F081FA04461CB115E000F054FE80
:1041A000E8E70D4801F0C2FA04466CB91C2000F0A3
:1041B00033F8102D07D2002229461C2000F03AF8CF
:1041C0000648056000E0012407B0204630BD00002D
:1041D0004038024040420F00D8150020C40600209D
:1041E00082B00C48016841F480410160006800F42D
:1041F000804001900748001F016841F08051016034
:10420000006800F08050019000220F21901E02B043
:1042100000F010B844380240002809DB00F01F020B
:10422000012191404009800000F1E020C0F8001118
:1042300070470000F0B40D460D4B1B68C3F302231A
:10424000C3F10704042C00D90424191D072901D245
:10425000002300E0DB1E012606FA04F1491E294076
:1042600099409E40761E16403143F0BC06F0B8BD22
:104270000CED00E000F00701054A10684FF6FF035F
:10428000184040EA012003490843106070470000CD
:104290000CED00E00000FA05704700684162002064
:1042A000704770B50368586A002907D09C6A00EB14
:1042B000144400204FF48275491E0AE040EA02408F
:1042C00098620DE005EB80069E5904EB1644401CF5
:1042D000C0B28842F6D305EB810144EA024058504F
:1042E000002070BDD0F8080505F033BB01EBC1021A
:1042F00000EB8202D0F80805D26C05F057BA01EB4A
:10430000C10200EB8202D0F80805D2F88C2205F039
:10431000BBBAD0F8080505F01EBB0A0601F00F0174
:1043200001EBC10100EB810101D53C3101E001F558
:104330001F71006806F0CEBA70B504460B0601F096
:104340000F0000EBC00104EB81014FF001024FF0C0
:10435000000502D53C314A7002E001F51F714D7035
:10436000087094F8BC04012808D084F8BC242068A4
:1043700005F068FF84F8BC54002070BD022070BDB9
:1043800070B5044601F00F006268904201D9012027
:1043900070BD0B0601F00F0101EBC10104EB8101BF
:1043A0004FF001024FF0000502D53C314A7002E0A7
:1043B00001F51F714D708D70087094F8BC040128D0
:1043C00008D084F8BC24206806F030F984F8BC5486
:1043D000002070BD022070BD01F00F0101EBC10192
:1043E00000EB8100D0F89C0270472DE9F0410446B3
:1043F0000F0601F00F0000EBC00104EB81014FF04C
:1044000001064FF0000502D53C314E7002E001F587
:104410001F714D700870CA600B714A7802B1088133
:10442000022B00D14D7194F8BC04012809D084F806
:10443000BC64206805F052FE284684F8BC54BDE8F0
:10444000F0810220FBE770B50D4605F00F0404EB88
:10445000C40100EB810101F51F710A618B6100232A
:104460000B624B700C700369012B00D14A612A0763
:1044700005D0027C006806F031F9002070BD027C96
:10448000006806F01DF8F8E770B504460D4661684F
:1044900005F00F00884201D9012070BD29064FF0B8
:1044A00000064FF0010206D500EBC00104EB8101CC
:1044B0003C314A7006E005EBC50104EB810101F5D2
:1044C0001F714E708A70087094F8BC04012807D0E0
:1044D00084F8BC24206806F0D5F8280702D007E04D
:1044E000022070BD217C04F2C442206806F074F8FA
:1044F00084F8BC64002070BD70B50D4605F00F0453
:1045000004EBC40100EB81013C310A618B610023A3
:104510000B6201234B700C700369012B00D14A61BF
:104520002A0705D0027C006806F0D8F8002070BD8C
:10453000027C006805F0C4FFF8E72DE9F84F044657
:104540002568284606F074FA00287ED1206806F017
:104550009BFA002879D0D5F80808C0F30D20C4F8DC
:10456000FC04206806F090FA800704D520684169B1
:1045700001F002014161206806F086FAC10604F2EA
:10458000C440009035D52068816921F01001816117
:104590002F6A07F00F0000EBC00004EB800606F561
:1045A0001F76C7F34340022802D0062812D01BE032
:1045B00047F6F070074217D0C7F30A12174628468D
:1045C000316906F065FA306938443061306A384440
:1045D000306209E008222846009906F059FA306A4C
:1045E000C7F30A11084430622068816941F0100164
:1045F0008161206806F048FA00034FF0080B4FF085
:1046000000094FF001085ED50026206806F01BFA6D
:10461000824655E05FEACA704FD0F1B2206806F0DA
:104620002BFA0746F80707D005EB4610C0F8088BB1
:104630003146204602F0F0FE380709D505EB46105A
:10464000C0F808BB3146204600E0F9E102F0C0FEA8
:10465000F80604D505EB46111020C1F8080BB80781
:104660001CD56869000605D5D5F8040840F48061BA
:10467000C5F8041806EBC60004EB800000F51F70B7
:10468000C178012905D180F80390F1B2204600F0ED
:10469000DDF905EB46110220C1F8080BB80604D578
:1046A00005EB46102021C0F8081BB80405D505EB22
:1046B00046104FF40051C0F8081B761C4FEA5A0A06
:1046C000BAF1000FA6D1206806F0DEF940036CD5E0
:1046D000206806F0B1F98246002663E05FEACA70FE
:1046E0005DD0F1B2206806F0B5F90746F80723D08F
:1046F00006F00F0108FA01F0D5F834188143C5F827
:10470000341805EB4610C0F80889206901280FD13C
:1047100006EBC60004EB8000D0E912211144C1640D
:1047200036B9606D20B920680121009A05F054FF68
:10473000F1B22046FFF7DAFD380703D505EB461046
:10474000C0F808B9F80604D505EB46111020C1F8E9
:104750000809780604D505EB46104021C0F8081971
:10476000B80716D53146284606F02EF906EBC600E6
:1047700004EB80003C30C178012905D180F803901A
:10478000F1B2204600F05EF905EB46110220C1F8B7
:104790000809380603D53146204602F0AFFE761CE4
:1047A0004FEA5A0ABAF1000F98D1206806F06CF966
:1047B000002811DAD5F8040820F00101C5F8041822
:1047C00094F8F404012829D0204600F00EFA20685D
:1047D000416901F000414161206806F055F900058A
:1047E0000BD5D5F80808C00702D0204600F042FAE1
:1047F0002068416901F400614161206806F044F9D4
:10480000C00461D5D5F8040820F00101C5F80418EA
:104810001021206806F0D8F8002120E084F8F494F4
:1048200000212046FFF738FDD1E705EB411000F5E8
:1048300010604FF67F328260036823F40013036038
:10484000C0F80822D0F8002222F40012C0F800229A
:10485000D0F8002242F00062C0F80022491C6068D3
:104860008842E2D8D5F81C0840F00111C5F81C18A0
:10487000206B60B1D5F8840840F00B01C5F88418AE
:10488000D5F8440840F00B01C5F844180CE0D5F801
:10489000140842F22B010843C5F81408D5F8100893
:1048A00040F00B01C5F81018D5F8000820F4FE619F
:1048B000C5F80018217C2068009A05F08DFE20685C
:1048C000416901F480514161206806F0DDF88004FF
:1048D00015D5206805F044FC206806F099F8E060E2
:1048E00000F0ACFA0146227B206806F037F920463A
:1048F00000F064F92068416901F4005141612068C9
:1049000006F0C2F8000707D5204600F072F92068CB
:10491000416901F008014161206806F0B5F8000620
:1049200015D5A86920F08001A96101260CE006EBED
:10493000C60004EB800090F87F02012803D1F1B299
:104940002046FFF7EAFC761C6068B042EFD820688A
:1049500006F09AF8C00220D5012616E005EB4610B5
:10496000D0F8001906EBC60004EB800090F8402058
:10497000012A09D1002907DA80F83F80F0B240F01F
:1049800080012046FFF7C9FC761C6068B042E5D87C
:104990002068416901F480114161206806F074F8D3
:1049A000800230D5012026E005EB4011D1F8001B34
:1049B00000EBC00204EB820292F88032012B19D185
:1049C000002917DA94F8FC3401F4803103F0010374
:1049D00099420FD182F87F82A96941F08002AA61D1
:1049E0006969090606D4D5F8040840F40070C5F8D2
:1049F000040803E0401C61688142D5D82068416901
:104A000001F400114161206806F03EF8400007D52E
:104A10002046FFF767FC2068416901F08041416151
:104A2000206806F031F840070AD520684568680715
:104A300002D52046FFF76DFC20684168294341609C
:104A4000BDE8F88FD0F8080504F0DABFD0F8080503
:104A500004F0EBBF2DE9F0418AB00446002C05D0EC
:104A6000266894F8BD04002520B108E001200AB0B2
:104A7000BDE8F08184F8BC54204600F05DF80320C6
:104A800084F8BD04F06BC00500D42561206805F0F2
:104A900011FD04F11001282288466846FCF7C4FA8B
:104AA00094E80F0005F06AFB022718B184F8BD7482
:104AB0000120DCE70021206806F009F8002101262A
:104AC0000DE001EBC10004EB80003C30467001704A
:104AD00001810571C56005618561491CC9B26068C5
:104AE0008842EED800210DE001EBC10004EB80000C
:104AF00000F51F70457001700571C5600561856125
:104B0000491CC9B260688842EED8282241466846EE
:104B1000FCF78AFA94E80F0005F014FC18B184F849
:104B2000BD740120A3E784F8385084F8BD64206880
:104B300005F0FAFB00209AE710B586B00446142170
:104B400001A8FCF7CDFA2068B0F1A04F2FD10021C9
:104B50001848026842F001020260006800F001009B
:104B600000904FF4C0500190022002900391032066
:104B700004900A20059001A90F48FFF7CDF90D48D0
:104B8000001D016841F0800101600A48143001688D
:104B900041F480410160006800F4804000900022F0
:104BA00005214320FFF746FB4320FFF735FB06B006
:104BB00010BD0000303802400000024070B50446CD
:104BC0000125E06800280ED0022801D0FEF705FB81
:104BD0002946D4F8080504F099FFD4F80805BDE883
:104BE000704004F04CBF0025F2E7D0F8080504F04F
:104BF00076BFD0F8080504F07CBF10B5044694F8E1
:104C0000BC0401280BD0012084F8BC0484F83810BF
:104C1000206805F08CFF002084F8BC0410BD022041
:104C200010BDD0F8082500F2C441104604F07ABF48
:104C300010B50446206894F8BC14012906D001215F
:104C400084F8BC14A16A012902D008E0022010BD3A
:104C5000A169012903D0816B41F48031816320680F
:104C600005F08AFE206805F051FB002084F8BC04A2
:104C700010BD000010B50446D4F8080504F094FFF8
:104C80002068D0F8001E41F00101C0F8001E206A23
:104C9000002804D00248016841F00601016010BDFF
:104CA00010ED00E0704700002DE9F04704460D4686
:104CB000002C13D0DFF82891D9F80000EFB200F0F3
:104CC0000700A8420CD289F80070D9F8000000F063
:104CD0000700A84204D00120BDE8F0870120FBE7CF
:104CE0002068404E810712D5400703D5306840F454
:104CF000E05030602078000703D5306840F4604011
:104D000030603068A16820F0F000084330602078FF
:104D1000C00731D0334960680839012808D002281B
:104D20000BD0032809D0096889070BD40120D3E7E9
:104D30000968890306D40120CEE70968890101D4F6
:104D40000120C9E7316821F0030101433160FFF719
:104D5000D3F9804641F2883A07E0FFF7CDF9A0EB9E
:104D60000800504501D90320B6E73068616800F0BB
:104D70000C00B0EB810FF0D1D9F8000000F0070073
:104D8000A84209D989F80070D9F8000000F007009E
:104D9000A84201D001209FE72078400705D5306860
:104DA000E16820F4E050084330602078000706D521
:104DB0003068216920F4604040EAC100306000F0B2
:104DC00063F83168084AC1F30311515CC8400749D0
:104DD000086007480068FFF7B7F900207CE700008B
:104DE000003C02400838024050F100085406002000
:104DF000C406002001490120C864704700004742F2
:104E00000F2202600B4A136803F003034360136828
:104E100003F0F0038360136803F4E053C360126887
:104E200002F46042D20802610348006800F0070003
:104E30000860704708380240003C024001480068A2
:104E4000704700005406002000B5FFF7F7FF044943
:104E50000968044AC1F38221515CC84000BD0000CA
:104E60000838024060F1000800B5FFF7E7FF044989
:104E70000968044AC1F34231515CC84000BD0000DA
:104E80000838024060F1000810B51748006810F0BB
:104E90000C01164816D0164B042912D0082911D13E
:104EA000114C241F216801F03F02216849020AD5F4
:104EB0002068C0F38810A0FB03010023FBF7D9FF93
:104EC00009E0184610BD21680023C1F38811A1FB39
:104ED0000001FBF7CEFF2168C1F30141491C4900E5
:104EE000B0FBF1F010BD0000083802400024F400CF
:104EF000001BB70010B505480068000605D5FFF790
:104F0000D1FE02498020891C087010BD0C38024077
:104F10002DE9F84F0446002C13D02078DFF8A08349
:104F2000C007A8F1040556D008F104000168C1F3D8
:104F3000810101290CD00068C0F38100022803D050
:104F40000DE00120BDE8F88FD8F80000400206D53A
:104F5000286880033FD5606870BB0120F2E7606875
:104F6000B0F5803F10D0B0F5A02F12D0286820F403
:104F700080302860286820F4802028606068E0B1D4
:104F8000FFF7BAF8064614E0286840F4803028603D
:104F9000F4E7286840F480202860286840F48030D6
:104FA0002860EBE7FFF7A8F8801B642801D90320ED
:104FB000C8E728688003F5D50DE0FFF79DF80646A1
:104FC00006E0FFF799F8801B642801D90320B9E7B0
:104FD00028688003F5D42078BA4F80074FF0000985
:104FE00048D5B748001D016811F00C0F08D00068C3
:104FF000C0F38100022813D1D8F8000040020FD47A
:105000002868800704D5E068012801D0012099E7CD
:105010002868216920F0F80040EAC100286029E0F2
:10502000E068B8B101203860FFF766F8064606E090
:10503000FFF762F8801B022801D9032082E7286865
:105040008007F5D52868216920F0F80040EAC10002
:1050500028600FE0C7F80090FFF74EF8064606E01C
:10506000FFF74AF8801B022801D903206AE7286865
:105070008007F5D42078000729D5DFF844A29248AC
:1050800061690AF1700A89B101210160FFF734F802
:10509000064606E0FFF730F8801B022801D90320FE
:1050A00050E7DAF800008007F4D510E0C0F800906F
:1050B000FFF722F8064606E0FFF71EF8801B0228DD
:1050C00001D903203EE7DAF800008007F4D4207805
:1050D000400778D54FF0000A79483C300068C0009E
:1050E0000BD477483C30016841F080510160006882
:1050F00000F0805000904FF0010ADFF8D0B1DBF8EB
:105100000000C00514D4DBF8000040F48070CBF838
:105110000000FEF7F1FF064606E0FEF7EDFF801BFC
:10512000022801D903200DE7DBF80000C005F4D503
:10513000634EA0686C3601280FD0052812D0306865
:1051400020F001003060306820F004003060A0687A
:10515000F8B1FEF7D1FF834617E0306840F0010058
:105160003060F4E7306840F004003060306840F0B0
:1051700001003060EBE7FEF7BFFFA0EB0B0141F24F
:105180008830814201D90320DCE630688007F2D5FF
:1051900010E0FEF7B1FF834609E0FEF7ADFFA0EB9C
:1051A0000B0141F28830814201D90320CAE6306800
:1051B0008007F2D4BAF1010F05D141483C300168B3
:1051C00021F080510160A069C0B33D49091D096803
:1051D0004FF0FF36C1F38101022946D0022805D0E5
:1051E000C7F86090FEF788FF04463AE0C7F8609081
:1051F000FEF782FF814607E0FEF77EFFA0EB090085
:10520000022801D903209DE628688001F4D4D4E95E
:1052100007010843616AA26A890106EB520241EA6A
:105220000241084394F82C1040EA0160C8F80000DD
:1052300001203866FEF760FF044607E03DE0FEF718
:105240005BFF001B022801D903207BE62868800150
:10525000F5D532E0FEF750FF001B022801D90320EC
:1052600070E628688001F5D427E0012823D0D8F81B
:105270000000E26900F4800191421AD1226A00F034
:105280003F01914215D147F6C071626A0140B1EB0E
:10529000821F0ED1A26A00F4403106EB5202B1EB3C
:1052A000024F06D194F82C1000F07060B0EB016F43
:1052B00003D0012046E6012044E6002042E600003B
:1052C0000438024000004742800E47420070004010
:1052D00070B50446002C09D0606A002540B12561F4
:1052E0006561A56294F8510040B10CE0012070BDE9
:1052F0006068B0F5827FF4D0E561F2E784F8505041
:10530000204600F045F8022084F85100206801682A
:1053100021F040010160A088218900F4827001F42D
:1053200004410843A18901F400610843217C01F094
:1053300002010843217D01F001010843218B01F4A2
:1053400000710843217F01F03801084394F82010D0
:1053500001F080010843218D01F4005108432168C8
:105360000860A069042101EA104094F8241001F0BB
:1053700010010843216848602068C16921F4006178
:10538000C1616565012084F85100002070BD0000F6
:10539000F0B587B00446142102A8FBF7A1FE1C4912
:1053A0002068884232D100271A48016841F48051B0
:1053B0000160006800F480500190164814380168BC
:1053C00041F002010160016801F0020101910168F0
:1053D00041F001010160006800F001000190182017
:1053E000029002260396049703250595052406944A
:1053F00002A90948FEF790FD8020029003960497C9
:105400000595069402A90548FEF786FD07B0F0BD94
:1054100000300140443802400004024000000240D5
:105420002DE9F84F04460A9E8A4693461F460125F9
:105430004FF0000894F8500001280ED0012084F8A5
:105440005000FEF759FE814694F85100616801282A
:105450000DD0B1F5827F07D102E00220BDE8F88FC0
:10546000A16809B9042802D04FF00208C3E0BAF1DC
:10547000000F28D0BBF1000F25D0380023D094F8BE
:105480005100042802D0052084F8510000206065F6
:10549000C4F838B0E787A787C4F830A0E786A786A6
:1054A0002064606420680168490603D4016841F003
:1054B00040010160E068B0F5006F07D06068E8B3B4
:1054C000012F48D07DE04FF0010894E0606808B1FA
:1054D000012F39D1206B21680088C860206B801CA7
:1054E0002063E08E401EE0862EE0206881688907F8
:1054F0000DD5E18E59B1012D09D1216B0988C1600B
:10550000206B801C2063E08E401EE0860025206812
:105510008168C9070BD0E18F49B1C068A16B0880D1
:10552000A06B801CA063E08F401EE0870125FEF782
:10553000E3FDA0EB0900B04206D300E00BE0701CD5
:1055400002D04FF0030856E0E08E0028CDD1E08F66
:105550000028CAD13BE0206B216800780873206BDB
:10556000401C2063E08E401EE0862AE020688168AF
:1055700089070DD5E18E59B1012D09D1216B09782B
:105580000173206B401C2063E08E401EE0860025E6
:1055900020688168C9070BD0E18F49B1C068A16B51
:1055A0000870A06B401CA063E08F401EE0870125BF
:1055B000FEF7A2FDA0EB0900B04201D3701C11D18F
:1055C00086B1E08E0028D1D1E08F0028CED14A46A6
:1055D0003146204602F03AFF38B14FF00108202052
:1055E000606508E04FF0030805E0A06818B920687E
:1055F000C1688068009001205034607000202070E5
:1056000040462BE77047704770B590F83C20012A60
:1056100031D0012680F83C60022280F83D200268EB
:105620005468936824F070050C682C435460134C44
:105630000268A24214D0B2F1804F11D0104CA242A5
:105640000ED0104CA2420BD00F4CA24208D00F4CEF
:10565000A24205D00E4CA24202D00E4CA24204D16E
:1056600023F080034968194391603C304670002163
:105670000170002070BD022070BD000000000140DC
:105680000004004000080040000C004000040140FD
:10569000004001400018004010B50446002C03D023
:1056A00094F83D0010B107E0012010BD002084F8FF
:1056B0003C00204600F016F8022084F83D00211D31
:1056C000206802F0E5FF01203D3460726070A07038
:1056D000E07020716071A071E07120722070002074
:1056E00010BD000008B500680D49884209D10D4879
:1056F000016841F004010160006800F004000090BE
:1057000008BD09498842FBD10648001D016841F4E3
:1057100000310160006800F40030009008BD000016
:1057200000080040403802400044014090F83D101D
:10573000012901D001207047022180F83D10016845
:10574000CA6842F00102CA6000681449884214D055
:10575000B0F1804F11D0124988420ED011498842D1
:105760000BD01149884208D01049884205D0104911
:10577000884202D00F49884209D1816801F00701AF
:10578000062908D0016841F00101016003E00168C9
:1057900041F001010160002070470000000001405D
:1057A0000004004000080040000C004000040140DC
:1057B000004001400018004070B50446002594F8F0
:1057C0003C00012817D0012684F83C60022084F8B0
:1057D0003D002068826822F0770222F47F428260D6
:1057E0000868502838D00DDC202853D005DC90B351
:1057F000102811D14EE0022070BD30284AD0402838
:105800000AD13DE0602831D070280CD0B0F5805F1F
:1058100003D0B0F5005F12D001253C346670002043
:105820002070284670BDCB68D1E90121206802F0C4
:10583000A2FF2068816841F077018160EDE7CB68C5
:10584000D1E90121206802F096FF2068816841F4C7
:1058500080418160E1E71DE0CA684968206803F083
:105860006DF85021206802F090FFD6E7CA684968B9
:10587000206803F074F86021206802F086FFCCE70E
:10588000CA684968206803F059F84021206802F08E
:105890007CFFC2E722680146104602F076FFBCE7B3
:1058A000704770B50446206801694FF00005C94390
:1058B000890716D4C168C943890712D4E91E01615A
:1058C0000120207720688069800703D02046FFF7F9
:1058D000E7FF05E0204600F0DFF8204600F06FF912
:1058E000257720680169C943490718D4C168C943AD
:1058F000490714D46FF00401016102202077206869
:10590000806910F4407F03D02046FFF7C9FF05E00F
:10591000204600F0C1F8204600F051F925772068B4
:105920000169C943090717D4C168C943090713D4DA
:105930006FF008010161042020772068C0698007AA
:1059400003D02046FFF7ACFF05E0204600F0A4F8A6
:10595000204600F034F9257720680169C943C9065B
:1059600018D4C168C943C90614D46FF0100101618D
:10597000082020772068C06910F4407F03D02046BB
:10598000FFF78EFF05E0204600F086F8204600F085
:1059900016F9257720680169C943C90708D1C1688C
:1059A000C943C90704D1891E0161204600F076F978
:1059B00020680169C943090609D4C168C9430906B9
:1059C00005D46FF0800101612046FFF71BFE2068BF
:1059D0000169C943490609D4C168C943490605D4C8
:1059E0006FF040010161204600F05FF92068016915
:1059F000C94389060BD4C168C943890607D46FF02F
:105A0000200101612046BDE87040FFF7FCBD70BD7C
:105A100030B587B00446142102A8FBF761FB194D8D
:105A200020681949022201230324A84213D10868DF
:105A300040F008000860086800F00800019050037A
:105A40000290039204930594069202A90F48FEF770
:105A500063FA07B030BD0E4DA842FAD1086840F095
:105A600020000860086800F02000019040200290AB
:105A7000039204930592069402A90648FEF74CFA95
:105A8000E7E700000008004030380240000C024008
:105A90000044014000140240704770B504460D46B2
:105AA000002694F83C0001280FD0012084F83C0027
:105AB0006AB1042A1FD0082A32D00C2A44D0012609
:105AC000002084F83C00304670BD022070BD29469D
:105AD000206802F063FE2068816941F0080181615D
